{
  "_format": "hh-sol-artifact-1",
  "contractName": "SpreadLove",
  "sourceName": "contracts/SpreadLove.sol",
  "abi": [
    {
      "inputs": [
        {
          "internalType": "contract IDatabase",
          "name": "db",
          "type": "address"
        }
      ],
      "stateMutability": "nonpayable",
      "type": "constructor"
    },
    {
      "inputs": [],
      "name": "database",
      "outputs": [
        {
          "internalType": "contract IDatabase",
          "name": "",
          "type": "address"
        }
      ],
      "stateMutability": "view",
      "type": "function"
    },
    {
      "inputs": [],
      "name": "getShares",
      "outputs": [
        {
          "internalType": "uint8[]",
          "name": "",
          "type": "uint8[]"
        }
      ],
      "stateMutability": "view",
      "type": "function"
    },
    {
      "inputs": [],
      "name": "getTotalShare",
      "outputs": [
        {
          "internalType": "uint8[]",
          "name": "",
          "type": "uint8[]"
        }
      ],
      "stateMutability": "view",
      "type": "function"
    },
    {
      "inputs": [],
      "name": "spreadLuv",
      "outputs": [],
      "stateMutability": "nonpayable",
      "type": "function"
    },
    {
      "inputs": [
        {
          "internalType": "contract IERC20",
          "name": "token",
          "type": "address"
        }
      ],
      "name": "spreadMoney",
      "outputs": [],
      "stateMutability": "nonpayable",
      "type": "function"
    },
    {
      "inputs": [],
      "name": "viewAddress",
      "outputs": [
        {
          "internalType": "address payable[]",
          "name": "",
          "type": "address[]"
        }
      ],
      "stateMutability": "view",
      "type": "function"
    },
    {
      "stateMutability": "payable",
      "type": "receive"
    }
  ],
  "bytecode": "0x60806040523480156200001157600080fd5b5060405162001b4e38038062001b4e833981810160405281019062000037919062000105565b600160008190555080600160006101000a81548173ffffffffffffffffffffffffffffffffffffffff021916908373ffffffffffffffffffffffffffffffffffffffff1602179055505062000137565b600080fd5b600073ffffffffffffffffffffffffffffffffffffffff82169050919050565b6000620000b9826200008c565b9050919050565b6000620000cd82620000ac565b9050919050565b620000df81620000c0565b8114620000eb57600080fd5b50565b600081519050620000ff81620000d4565b92915050565b6000602082840312156200011e576200011d62000087565b5b60006200012e84828501620000ee565b91505092915050565b611a0780620001476000396000f3fe6080604052600436106100595760003560e01c806318b04c8a146100655780631c79f6e7146100905780633f06cd66146100b9578063713b563f146100e4578063d73fe0aa1461010f578063ee16edf61461013a57610060565b3661006057005b600080fd5b34801561007157600080fd5b5061007a610151565b6040516100879190610e31565b60405180910390f35b34801561009c57600080fd5b506100b760048036038101906100b29190610eb7565b6101ee565b005b3480156100c557600080fd5b506100ce61052a565b6040516100db9190610faf565b60405180910390f35b3480156100f057600080fd5b506100f96105c7565b6040516101069190611030565b60405180910390f35b34801561011b57600080fd5b506101246105ed565b6040516101319190610faf565b60405180910390f35b34801561014657600080fd5b5061014f61068a565b005b6060600160009054906101000a900473ffffffffffffffffffffffffffffffffffffffff1673ffffffffffffffffffffffffffffffffffffffff16633c6e71616040518163ffffffff1660e01b8152600401600060405180830381865afa1580156101c0573d6000803e3d6000fd5b505050506040513d6000823e3d601f19601f820116820180604052508101906101e991906111d0565b905090565b6101f66109ce565b6000600160009054906101000a900473ffffffffffffffffffffffffffffffffffffffff1673ffffffffffffffffffffffffffffffffffffffff16633c6e71616040518163ffffffff1660e01b8152600401600060405180830381865afa158015610265573d6000803e3d6000fd5b505050506040513d6000823e3d601f19601f8201168201806040525081019061028e91906111d0565b90506000600160009054906101000a900473ffffffffffffffffffffffffffffffffffffffff1673ffffffffffffffffffffffffffffffffffffffff1663d73fe0aa6040518163ffffffff1660e01b8152600401600060405180830381865afa1580156102ff573d6000803e3d6000fd5b505050506040513d6000823e3d601f19601f820116820180604052508101906103289190611308565b90506000600160009054906101000a900473ffffffffffffffffffffffffffffffffffffffff1673ffffffffffffffffffffffffffffffffffffffff16633a98ef396040518163ffffffff1660e01b8152600401602060405180830381865afa158015610399573d6000803e3d6000fd5b505050506040513d601f19601f820116820180604052508101906103bd9190611387565b905060008351905060008573ffffffffffffffffffffffffffffffffffffffff166370a08231306040518263ffffffff1660e01b815260040161040091906113c3565b602060405180830381865afa15801561041d573d6000803e3d6000fd5b505050506040513d601f19601f820116820180604052508101906104419190611387565b9050818111610485576040517f08c379a000000000000000000000000000000000000000000000000000000000815260040161047c9061143b565b60405180910390fd5b60005b82811015610519576105088682815181106104a6576104a561145b565b5b6020026020010151858784815181106104c2576104c161145b565b5b602002602001015160ff16856104d891906114b9565b6104e2919061152a565b8973ffffffffffffffffffffffffffffffffffffffff16610a1d9092919063ffffffff16565b806105129061155b565b9050610488565b505050505050610527610aa3565b50565b6060600160009054906101000a900473ffffffffffffffffffffffffffffffffffffffff1673ffffffffffffffffffffffffffffffffffffffff1663d73fe0aa6040518163ffffffff1660e01b8152600401600060405180830381865afa158015610599573d6000803e3d6000fd5b505050506040513d6000823e3d601f19601f820116820180604052508101906105c29190611308565b905090565b600160009054906101000a900473ffffffffffffffffffffffffffffffffffffffff1681565b6060600160009054906101000a900473ffffffffffffffffffffffffffffffffffffffff1673ffffffffffffffffffffffffffffffffffffffff1663d73fe0aa6040518163ffffffff1660e01b8152600401600060405180830381865afa15801561065c573d6000803e3d6000fd5b505050506040513d6000823e3d601f19601f820116820180604052508101906106859190611308565b905090565b6106926109ce565b6000600160009054906101000a900473ffffffffffffffffffffffffffffffffffffffff1673ffffffffffffffffffffffffffffffffffffffff16633c6e71616040518163ffffffff1660e01b8152600401600060405180830381865afa158015610701573d6000803e3d6000fd5b505050506040513d6000823e3d601f19601f8201168201806040525081019061072a91906111d0565b90506000600160009054906101000a900473ffffffffffffffffffffffffffffffffffffffff1673ffffffffffffffffffffffffffffffffffffffff1663d73fe0aa6040518163ffffffff1660e01b8152600401600060405180830381865afa15801561079b573d6000803e3d6000fd5b505050506040513d6000823e3d601f19601f820116820180604052508101906107c49190611308565b90506000600160009054906101000a900473ffffffffffffffffffffffffffffffffffffffff1673ffffffffffffffffffffffffffffffffffffffff16633a98ef396040518163ffffffff1660e01b8152600401602060405180830381865afa158015610835573d6000803e3d6000fd5b505050506040513d601f19601f820116820180604052508101906108599190611387565b905060008351905060004790508181116108a8576040517f08c379a000000000000000000000000000000000000000000000000000000000815260040161089f9061143b565b60405180910390fd5b60005b828110156109be5760008682815181106108c8576108c761145b565b5b602002602001015173ffffffffffffffffffffffffffffffffffffffff16858784815181106108fa576108f961145b565b5b602002602001015160ff168561091091906114b9565b61091a919061152a565b604051610926906115d4565b60006040518083038185875af1925050503d8060008114610963576040519150601f19603f3d011682016040523d82523d6000602084013e610968565b606091505b50509050806109ac576040517f08c379a00000000000000000000000000000000000000000000000000000000081526004016109a390611635565b60405180910390fd5b816109b69061155b565b9150506108ab565b5050505050506109cc610aa3565b565b600260005403610a13576040517f08c379a0000000000000000000000000000000000000000000000000000000008152600401610a0a906116a1565b60405180910390fd5b6002600081905550565b610a9e8363a9059cbb60e01b8484604051602401610a3c9291906116d0565b604051602081830303815290604052907bffffffffffffffffffffffffffffffffffffffffffffffffffffffff19166020820180517bffffffffffffffffffffffffffffffffffffffffffffffffffffffff8381831617835250505050610aad565b505050565b6001600081905550565b6000610b0f826040518060400160405280602081526020017f5361666545524332303a206c6f772d6c6576656c2063616c6c206661696c65648152508573ffffffffffffffffffffffffffffffffffffffff16610b749092919063ffffffff16565b9050600081511115610b6f5780806020019051810190610b2f9190611731565b610b6e576040517f08c379a0000000000000000000000000000000000000000000000000000000008152600401610b65906117d0565b60405180910390fd5b5b505050565b6060610b838484600085610b8c565b90509392505050565b606082471015610bd1576040517f08c379a0000000000000000000000000000000000000000000000000000000008152600401610bc890611862565b60405180910390fd5b6000808673ffffffffffffffffffffffffffffffffffffffff168587604051610bfa91906118e8565b60006040518083038185875af1925050503d8060008114610c37576040519150601f19603f3d011682016040523d82523d6000602084013e610c3c565b606091505b5091509150610c4d87838387610c59565b92505050949350505050565b60608315610cbb576000835103610cb357610c7385610cce565b610cb2576040517f08c379a0000000000000000000000000000000000000000000000000000000008152600401610ca99061194b565b60405180910390fd5b5b829050610cc6565b610cc58383610cf1565b5b949350505050565b6000808273ffffffffffffffffffffffffffffffffffffffff163b119050919050565b600082511115610d045781518083602001fd5b806040517f08c379a0000000000000000000000000000000000000000000000000000000008152600401610d3891906119af565b60405180910390fd5b600081519050919050565b600082825260208201905092915050565b6000819050602082019050919050565b600073ffffffffffffffffffffffffffffffffffffffff82169050919050565b6000610d9882610d6d565b9050919050565b610da881610d8d565b82525050565b6000610dba8383610d9f565b60208301905092915050565b6000602082019050919050565b6000610dde82610d41565b610de88185610d4c565b9350610df383610d5d565b8060005b83811015610e24578151610e0b8882610dae565b9750610e1683610dc6565b925050600181019050610df7565b5085935050505092915050565b60006020820190508181036000830152610e4b8184610dd3565b905092915050565b6000604051905090565b600080fd5b600080fd5b6000610e7282610d6d565b9050919050565b6000610e8482610e67565b9050919050565b610e9481610e79565b8114610e9f57600080fd5b50565b600081359050610eb181610e8b565b92915050565b600060208284031215610ecd57610ecc610e5d565b5b6000610edb84828501610ea2565b91505092915050565b600081519050919050565b600082825260208201905092915050565b6000819050602082019050919050565b600060ff82169050919050565b610f2681610f10565b82525050565b6000610f388383610f1d565b60208301905092915050565b6000602082019050919050565b6000610f5c82610ee4565b610f668185610eef565b9350610f7183610f00565b8060005b83811015610fa2578151610f898882610f2c565b9750610f9483610f44565b925050600181019050610f75565b5085935050505092915050565b60006020820190508181036000830152610fc98184610f51565b905092915050565b6000819050919050565b6000610ff6610ff1610fec84610d6d565b610fd1565b610d6d565b9050919050565b600061100882610fdb565b9050919050565b600061101a82610ffd565b9050919050565b61102a8161100f565b82525050565b60006020820190506110456000830184611021565b92915050565b600080fd5b6000601f19601f8301169050919050565b7f4e487b7100000000000000000000000000000000000000000000000000000000600052604160045260246000fd5b61109982611050565b810181811067ffffffffffffffff821117156110b8576110b7611061565b5b80604052505050565b60006110cb610e53565b90506110d78282611090565b919050565b600067ffffffffffffffff8211156110f7576110f6611061565b5b602082029050602081019050919050565b600080fd5b61111681610d8d565b811461112157600080fd5b50565b6000815190506111338161110d565b92915050565b600061114c611147846110dc565b6110c1565b9050808382526020820190506020840283018581111561116f5761116e611108565b5b835b8181101561119857806111848882611124565b845260208401935050602081019050611171565b5050509392505050565b600082601f8301126111b7576111b661104b565b5b81516111c7848260208601611139565b91505092915050565b6000602082840312156111e6576111e5610e5d565b5b600082015167ffffffffffffffff81111561120457611203610e62565b5b611210848285016111a2565b91505092915050565b600067ffffffffffffffff82111561123457611233611061565b5b602082029050602081019050919050565b61124e81610f10565b811461125957600080fd5b50565b60008151905061126b81611245565b92915050565b600061128461127f84611219565b6110c1565b905080838252602082019050602084028301858111156112a7576112a6611108565b5b835b818110156112d057806112bc888261125c565b8452602084019350506020810190506112a9565b5050509392505050565b600082601f8301126112ef576112ee61104b565b5b81516112ff848260208601611271565b91505092915050565b60006020828403121561131e5761131d610e5d565b5b600082015167ffffffffffffffff81111561133c5761133b610e62565b5b611348848285016112da565b91505092915050565b6000819050919050565b61136481611351565b811461136f57600080fd5b50565b6000815190506113818161135b565b92915050565b60006020828403121561139d5761139c610e5d565b5b60006113ab84828501611372565b91505092915050565b6113bd81610e67565b82525050565b60006020820190506113d860008301846113b4565b92915050565b600082825260208201905092915050565b7f456d7074792062616c616e636500000000000000000000000000000000000000600082015250565b6000611425600d836113de565b9150611430826113ef565b602082019050919050565b6000602082019050818103600083015261145481611418565b9050919050565b7f4e487b7100000000000000000000000000000000000000000000000000000000600052603260045260246000fd5b7f4e487b7100000000000000000000000000000000000000000000000000000000600052601160045260246000fd5b60006114c482611351565b91506114cf83611351565b92508282026114dd81611351565b915082820484148315176114f4576114f361148a565b5b5092915050565b7f4e487b7100000000000000000000000000000000000000000000000000000000600052601260045260246000fd5b600061153582611351565b915061154083611351565b9250826115505761154f6114fb565b5b828204905092915050565b600061156682611351565b91507fffffffffffffffffffffffffffffffffffffffffffffffffffffffffffffffff82036115985761159761148a565b5b600182019050919050565b600081905092915050565b50565b60006115be6000836115a3565b91506115c9826115ae565b600082019050919050565b60006115df826115b1565b9150819050919050565b7f2050726f626c656d2073656e64696e6720657468657273000000000000000000600082015250565b600061161f6017836113de565b915061162a826115e9565b602082019050919050565b6000602082019050818103600083015261164e81611612565b9050919050565b7f5265656e7472616e637947756172643a207265656e7472616e742063616c6c00600082015250565b600061168b601f836113de565b915061169682611655565b602082019050919050565b600060208201905081810360008301526116ba8161167e565b9050919050565b6116ca81611351565b82525050565b60006040820190506116e560008301856113b4565b6116f260208301846116c1565b9392505050565b60008115159050919050565b61170e816116f9565b811461171957600080fd5b50565b60008151905061172b81611705565b92915050565b60006020828403121561174757611746610e5d565b5b60006117558482850161171c565b91505092915050565b7f5361666545524332303a204552433230206f7065726174696f6e20646964206e60008201527f6f74207375636365656400000000000000000000000000000000000000000000602082015250565b60006117ba602a836113de565b91506117c58261175e565b604082019050919050565b600060208201905081810360008301526117e9816117ad565b9050919050565b7f416464726573733a20696e73756666696369656e742062616c616e636520666f60008201527f722063616c6c0000000000000000000000000000000000000000000000000000602082015250565b600061184c6026836113de565b9150611857826117f0565b604082019050919050565b6000602082019050818103600083015261187b8161183f565b9050919050565b600081519050919050565b60005b838110156118ab578082015181840152602081019050611890565b60008484015250505050565b60006118c282611882565b6118cc81856115a3565b93506118dc81856020860161188d565b80840191505092915050565b60006118f482846118b7565b915081905092915050565b7f416464726573733a2063616c6c20746f206e6f6e2d636f6e7472616374000000600082015250565b6000611935601d836113de565b9150611940826118ff565b602082019050919050565b6000602082019050818103600083015261196481611928565b9050919050565b600081519050919050565b60006119818261196b565b61198b81856113de565b935061199b81856020860161188d565b6119a481611050565b840191505092915050565b600060208201905081810360008301526119c98184611976565b90509291505056fea2646970667358221220fb2b66096d8f91a290cf6c26dbb3736a2f933fcb42c5eaa15ed5eeff80be59c664736f6c63430008110033",
  "linkReferences": {},
  "deployedLinkReferences": {}
}